:100000000C942A000C9447000C9447000C94470071
:100010000C9447000C9447000C9447000C94470044
:100020000C9447000C9447000C9428010C94470052
:100030000C9447000C9447000C9447000C94470024
:100040000C9447000C9447000C9447000C94470014
:100050000C94470011241FBECFE5D8E0DEBFCDBF12
:1000600010E0A0E6B0E0E8E6F4E002C005900D92F2
:10007000AC37B107D9F720E0ACE7B0E001C01D9282
:10008000AE37B207E1F70E944D000C9432020C9497
:1000900000008FEF84BB8ABB08950E94C4000E94B9
:1000A000D8010E944900789461E081E00E941E011D
:1000B00084E690E00E94F50062E081E00E941E016B
:1000C00082E790E00E94F5000E947500C82F62E070
:1000D0008AE00E941E018C2F90E00E940401F4CF60
:1000E000089508950895089508958BB38F608BBB8C
:1000F00020E030E060E870E0822F9AB390789ABBFD
:100100009AB3AB01022E02C0559547950A94E2F7C7
:10011000492B4ABBCB9B0CC0CA9B06C0C99B06C0DF
:10012000C8990BC093E005C091E003C092E001C004
:1001300090E0990F990F890F08952F5F3F4F24305A
:100140003105D1F68FEF0895C29A00000000C298E1
:10015000089511BAC19AC09882B3803528F00E94E0
:10016000A40082B38035D8F78FEF81BB0895CF9379
:10017000C82F0E94A900C2BB88B38C7F88BB0E9495
:10018000A40012BACF91089587B3876087BB8FE52B
:100190009AEE0197F1F700C0000081E00E94B700DD
:1001A0008FE39FE10197F1F700C0000088E30E9410
:1001B000B70087EC90E00197F1F700C000008CE0F9
:1001C0000E94B70087EC90E00197F1F700C00000B3
:1001D0000895CF93C82F0E94A900C2BBC198C09AAE
:1001E0000E94A40012BACF910895CF93DF93EC013F
:1001F0008881882331F021960E94E900899181113C
:10020000FBCFDF91CF910895CF93DF9300D000D043
:1002100000D0CDB7DEB74AE0BE016F5F7F4F0E94CE
:10022000FD01CE0101960E94F50026960FB6F894C6
:10023000DEBF0FBECDBFDF91CF9108958158E62F6D
:10024000F0E0E15AFF4F9081890F0E94B7000895B6
:100250001F920F920FB60F9211242F933F934F933B
:100260005F936F937F938F939F93AF93BF93EF931E
:10027000FF9380917C0090917D00019690937D008A
:1002800080937C000E94740040917C0050917D001E
:100290009A01ADECBCEC0E94EE019695879596957F
:1002A0008795969587959C01220F331F880F991F7C
:1002B000880F991F880F991F820F931F481759079E
:1002C00011F40E94730040917C0050917D009A01CE
:1002D0003695279536952795ABE7B4E10E94EE0158
:1002E0009695879564E6689F9001699F300D11246B
:1002F0004217530711F40E94720040917C00509104
:100300007D009A0136952795369527953695279540
:10031000A5ECB0E20E94EE01929582958F7089273C
:100320009F70892768EE73E0869F9001879F300D4C
:10033000969F300D11244217530711F40E9471004B
:1003400040917C0050917D009A01329522952F704A
:1003500023273F702327A7E4B3E00E94EE01969580
:100360008795969587959695879560E177E2869F24
:100370009001879F300D969F300D1124421753072F
:1003800031F40E94700010927D0010927C00FF9169
:10039000EF91BF91AF919F918F917F916F915F91FD
:1003A0004F913F912F910F900FBE0F901F90189576
:1003B00010927D0010927C0083B783BF83B7826068
:1003C00083BF83B7886083BF88B7826088BF89B7DF
:1003D000826089BF12BE87EC8CBF0895A29FB001D6
:1003E000B39FC001A39F700D811D1124911DB29F69
:1003F000700D811D1124911D0895BB274A3031F4E1
:10040000992322F4BDE2909581959F4F0C940902A7
:10041000BB27FB015527AA27880F991FAA1FA417DE
:1004200010F0A41B83955051B9F7A05DAA3308F0D2
:10043000A95DA193009779F7B111B1931192CB0106
:100440000C942202DC01FC01672F71917723E1F704
:10045000329704C07C916D9370836291AE17BF0791
:08046000C8F30895F894FFCFE2
:1004680000401454546865726D616C204368617271
:0C04780074005265636F726465720000CE
:00000001FF
