:100000000C942A000C9447000C9447000C94470071
:100010000C9447000C9447000C9447000C94470044
:100020000C9447000C9447000C9483050C944700F3
:100030000C9447000C9447000C9447000C94470024
:100040000C9447000C9447000C9447000C94470014
:100050000C94470011241FBECFE5D8E0DEBFCDBF12
:1000600011E0A0E6B0E0E0E0FCE002C005900D92F7
:10007000A43FB107D9F721E0A4EFB1E001C01D9280
:10008000AB3FB207E1F70E9449000C94FE050C94C7
:1000900000000E94D8000E94B3058FEF84BB0E942D
:1000A0007B000E9467000E9438018FE493EC019767
:1000B000F1F700C000007894FFCF0E948000809389
:1000C000F8018091F80185BB0E946502089586B110
:1000D000876886B987B1806C87B9369A3699FECF22
:1000E000089597B19077892B87B9369A3699FECFC4
:1000F00084B195B1089580E78ABB8FE08BBB0895EA
:1001000087E38BBBCB9B1CC0CA9B1CC0C99B1CC07C
:10011000C89B1CC087E58BBBCB9B1AC0CA9B1AC06F
:10012000C99B1AC0C89B1AC087E68BBBCB9B18C063
:10013000CA9B18C0C99B18C0C89918C080E108950F
:1001400081E0089586E008958AE008958EE008959C
:1001500082E0089587E008958BE008958FE0089588
:1001600083E0089588E008958CE0089580E0089584
:10017000C29A00000000C298089511BAC19AC098AE
:1001800082B3803528F00E94B80082B38035D8F75A
:100190008FEF81BB0895CF93C82F0E94BD00C2BBD3
:1001A00088B38C7F88BB0E94B80012BACF910895A3
:1001B00087B3876087BB85EA9EE00197F1F700C0AF
:1001C000000081E00E94CB0083EF91E00197F1F7FE
:1001D00000C0000088E30E94CB0090E19A95F1F7FF
:1001E00000C08CE00E94CB0080E18A95F1F700C04E
:1001F0000895CF93C82F0E94BD00C2BBC198C09A7A
:100200000E94B80012BACF910895CF93DF93EC010A
:100210008881882331F021960E94F900899181110B
:10022000FBCFDF91CF910895CF93DF9300D000D023
:1002300000D0CDB7DEB74AE0BE016F5F7F4F0E94AE
:10024000C905CE0101960E94050126960FB6F894C5
:10025000DEBF0FBECDBFDF91CF9108958158E62F4D
:10026000F0E0E15AFF4F9081890F0E94CB00089582
:1002700061E081E00E942E0187E790E00E94050185
:1002800062E081E00E942E0185E890E00E94050175
:10029000089581309105B1F08230910521F1892BCB
:1002A00091F561E081E00E942E018EE890E00E94CD
:1002B000050162E081E00E942E018FE990E00E943A
:1002C0000501089561E081E00E942E0180EB90E03D
:1002D0000E94050162E081E00E942E0181EC90E025
:1002E0000E940501089561E081E00E942E0182EDE7
:1002F00090E00E94050162E081E00E942E0181EC05
:1003000090E00E940501089581309105B1F082309E
:10031000910521F1892B91F561E081E00E942E0188
:1003200083EE90E00E94050162E081E00E942E01D0
:1003300084EF90E00E940501089561E081E00E9451
:100340002E0185E091E00E94050162E081E00E94BB
:100350002E0186E191E00E940501089561E081E0AF
:100360000E942E0187E291E00E94050162E081E097
:100370000E942E0186E191E00E940501089561E04E
:1003800081E00E942E0188E391E00E94050162E075
:1003900081E00E942E0184EF90E00E940501089503
:1003A00061E081E00E942E0189E491E00E94050154
:1003B00062E081E00E942E0184EF90E00E9405013E
:1003C000089581309105D9F01CF4892B39F00895F6
:1003D0008230910529F10397A1F1089561E081E050
:1003E0000E942E018AE591E00E94050162E081E011
:1003F0000E942E0184EF90E00E940501089561E0C3
:1004000081E00E942E018BE691E00E94050162E0EE
:1004100081E00E942E0186E191E00E94050108958D
:1004200061E081E00E942E018CE791E00E940501CD
:1004300062E081E00E942E0186E191E00E940501C8
:10044000089561E081E00E942E018DE891E00E9414
:10045000050162E081E00E942E0186E191E00E94A8
:100460000501089561E081E00E942E018EE991E08E
:100470000E94050162E081E00E942E018FEA91E076
:100480000E940501089561E081E00E942E0180EC48
:1004900091E00E94050162E081E00E942E018FEA56
:1004A00091E00E940501089561E081E00E942E0123
:1004B00081ED91E00E94050162E081E00E942E0141
:1004C0008FEA91E00E9405010895CF93DF93809118
:1004D000F6019091F7018639910509F4E8C264F4B8
:1004E0008233910509F4ADC08436910509F452C1F7
:1004F000892B09F005C314C08A3F910509F483C212
:100500002CF4883C910509F4A7C2FAC28C3221E090
:10051000920709F404C28E35914009F42BC2F0C24F
:100520008091640090916500892B51F08091F401D5
:100530009091F5010E9449011092650010926400AB
:100540008091F801873001F502C01092F8010E94F5
:1005500080008730D1F38091F4019091F5010197EB
:100560009093F5018093F40181E090E09093650011
:10057000809364008091F4019091F501992324F413
:100580001092F5011092F4018091F8018F3011F56D
:1005900002C01092F8010E9480008F30D1F3809148
:1005A000F4019091F50101969093F5018093F40187
:1005B00081E090E090936500809364008091F40165
:1005C0009091F501039734F082E090E09093F5016B
:1005D0008093F4018091F4019091F5010197A1F4C9
:1005E0008091F801863081F41092F5011092F401A7
:1005F00081E090E0909365008093640082E390E056
:100600009093F7018093F6018091F4019091F501A8
:10061000029709F075C28091F801863009F070C226
:100620001092F5011092F40181E090E09093650042
:100630008093640084E690E09093F7018093F60144
:100640005FC28091640090916500892B51F0809188
:10065000F4019091F5010E948401109265001092BE
:1006600064008091F801873001F502C01092F80112
:100670000E9480008730D1F38091F4019091F501C0
:1006800001979093F5018093F40181E090E09093BD
:100690006500809364008091F4019091F5019923A5
:1006A00024F41092F5011092F4018091F8018F303A
:1006B00011F502C01092F8010E9480008F30D1F332
:1006C0008091F4019091F50101969093F50180934A
:1006D000F40181E090E09093650080936400809144
:1006E000F4019091F501039734F082E090E090934B
:1006F000F5018093F4018091F4019091F501019747
:10070000A1F48091F801863081F41092F5011092E5
:10071000F40181E090E090936500809364008EE5A1
:1007200091E09093F7018093F6018091F40190910C
:10073000F5010297A1F48091F801863081F41092BE
:10074000F5011092F40181E090E0909365008093B0
:1007500064008CE291E09093F7018093F601809120
:10076000F801883009F0CCC102C01092F8010E9453
:1007700080008830D1F381E090E09093F501809380
:10078000F40190936500809364001092F701109239
:10079000F601B6C18091640090916500892B51F0FB
:1007A0008091F4019091F5010E94E10110926500A1
:1007B000109264008091F801873001F502C0109218
:1007C000F8010E9480008730D1F38091F40190916C
:1007D000F50101979093F5018093F40181E090E099
:1007E00090936500809364008091F4019091F501ED
:1007F000992324F41092F5011092F4018091F801EC
:100800008F3011F502C01092F8010E9480008F30E5
:10081000D1F38091F4019091F50101969093F50147
:100820008093F40181E090E09093650080936400F0
:100830008091F4019091F501049734F083E090E009
:100840009093F5018093F4018091F4019091F5016A
:100850000197A1F48091F801863081F41092F5019E
:100860001092F40181E090E0909365008093640021
:100870008AEF90E09093F7018093F6018091F40164
:100880009091F5010297A1F48091F801863081F4EE
:100890001092F5011092F40181E090E090936500D0
:1008A0008093640088EC90E09093F7018093F601C8
:1008B0008091F4019091F5010397A1F48091F801E2
:1008C000863081F41092F5011092F40181E090E0FD
:1008D000909365008093640086E990E09093F7011F
:1008E0008093F6018091F801883009F009C102C0B7
:1008F0001092F8010E9480008830D1F382E090E0ED
:100900009093F5018093F40181E090E0909365006D
:10091000809364001092F7011092F601F1C080916B
:10092000640090916500892B31F00E94D0011092F3
:100930006500109264008091F801883009F0E0C0F1
:1009400002C01092F8010E9480008830D1F382E04A
:1009500090E09093F5018093F40181E090E0909312
:1009600065008093640082E390E09093F7018093A8
:10097000F601C6C08091640090916500892B31F02A
:100980000E94BF0110926500109264008091F801EE
:100990008830B9F402C01092F8010E9480008830BB
:1009A000D1F381E090E09093F5018093F40190936E
:1009B00065008093640082E390E09093F701809358
:1009C000F60183E00E947100EC0183EC99E001974D
:1009D000F1F700C0000061E081E00E942E0182EE8C
:1009E00091E00E94050161E08CE00E942E01CE01A1
:1009F0000E94140162E081E00E942E0184EF90E0E9
:100A00000E9405017DC08091640090916500892B52
:100A100031F00E94320210926500109264008091C1
:100A2000F801883009F06CC002C01092F8010E94F1
:100A300080008830D1F381E090E09093F5018093BD
:100A4000F401909365008093640084E690E09093B5
:100A5000F7018093F60154C0809164009091650085
:100A6000892B31F00E9443021092650010926400BD
:100A70008091F801883009F043C002C01092F8015B
:100A80000E9480008830D1F382E090E09093F501DD
:100A90008093F40181E090E090936500809364007E
:100AA00084E690E09093F7018093F60129C080914D
:100AB000640090916500892B31F00E9454021092DD
:100AC0006500109264008091F8018830C9F402C07A
:100AD0001092F8010E9480008830D1F383E090E00A
:100AE0009093F5018093F40181E090E0909365008C
:100AF0008093640084E690E09093F7018093F60180
:100B0000DF91CF9108951F920F920FB60F9211248B
:100B10002F933F934F935F936F937F938F939F9305
:100B2000AF93BF93EF93FF938091F9019091FA01F6
:100B300001969093FA018093F90185B3805885BBA3
:100B40000E945D00FF91EF91BF91AF919F918F91B6
:100B50007F916F915F914F913F912F910F900FBEB9
:100B60000F901F9018951092FA011092F90183B717
:100B700083BF83B7816083BF83B7886083BF88B733
:100B8000826088BF89B7826089BF12BE83E68CBF4E
:100B90000895BB274A3031F4992322F4BDE29095A1
:100BA00081959F4F0C94D505BB27FB015527AA279C
:100BB000880F991FAA1FA41710F0A41B83955051EA
:100BC000B9F7A05DAA3308F0A95DA193009779F762
:100BD000B111B1931192CB010C94EE05DC01FC0133
:100BE000672F71917723E1F7329704C07C916D9361
:100BF00070836291AE17BF07C8F30895F894FFCFD2
:100C000000401454010020202020202020202020FB
:100C100020202020202000546865726D616C2043E4
:100C200068617274005265636F726465720020209F
:100C300020204D61696E204D656E75202020005387
:100C400037205570207C2053313520446F776E005B
:100C50005072696E742043686172742020202020D5
:100C6000005336204F4B20207C20202020202020A5
:100C70002000436F6E666967757265202020202012
:100C80002020002020205072696E74204D656E7502
:100C900020202000202020202020207C20205338CD
:100CA0002043414E005072696E74204C4452202003
:100CB0002020202020005336204F4B20207C202055
:100CC00053382043414E005072696E742054656D54
:100CD00070202020202020005072696E74696E6799
:100CE000204C445220202020005072696E74696E9E
:100CF000672054656D7020202000202020436F6EF7
:100D0000666967204D656E75202000536574205319
:100D1000616D706C652052617465200053657420AC
:100D20004C445220506172616D2020200053657444
:100D30002054656D7020506172616D2020005365F4
:100D4000742052617465202531202020202000531A
:100D5000377C533135207C202053382043414E00CE
:100D6000536574204C44522025312020202020201F
:100D7000005365742054656D70202531202020209B
:100D800020004144432056414C55453A2020202024
:040D9000202000001F
:00000001FF
