:100000000C942A000C9447000C9447000C94470071
:100010000C9447000C9447000C9447000C9454092E
:100020000C9447000C9447000C940E090C94470064
:100030000C9447000C9447000C9447000C94470024
:100040000C9447000C9447000C9447000C94470014
:100050000C94470011241FBECFE5D8E0DEBFCDBF12
:1000600014E0A0E6B0E0E6EAF5E102C005900D92EA
:10007000A438B107D9F727E0A4E8B4E001C01D9285
:10008000A033B207E1F70E9449000C94D10A0C9406
:1000900000000E94DB000E943E090E94C2050E94EF
:1000A0004E020E94C9050E94130A0E947E000E940F
:1000B0006A000E9421018FE493EC0197F1F700C0E0
:1000C00000007894FFCF0E94830080939B040E94DD
:1000D000F405089586B1876886B987B1806C87B9C1
:1000E000369A3699FECF089597B19077892B87B9C4
:1000F000369A3699FECF84B195B1089580E78ABBD0
:100100008FE08BBB089587E38BBBCB9B1CC0CA9B46
:100110001CC0C99B1CC0C89B1CC087E58BBBCB9B6C
:100120001AC0CA9B1AC0C99B1AC0C89B1AC087E6CE
:100130008BBBCB9B18C0CA9B18C0C99B18C0C89961
:1001400018C080E1089581E0089586E008958AE06E
:1001500008958EE0089582E0089587E008958BE089
:1001600008958FE0089583E0089588E008958CE075
:10017000089580E00895C29A00000000C298089592
:1001800011BAC19AC09882B3803528F00E94BB0092
:1001900082B38035D8F78FEF81BB0895CF93C82FF6
:1001A0000E94C000C2BB88B38C7F88BB0E94BB008A
:1001B00012BACF91089587B3876087BB85EA9EE026
:1001C0000197F1F700C0000081E00E94CE0083EFAC
:1001D00091E00197F1F700C0000088E30E94CE0093
:1001E00090E19A95F1F700C08CE00E94CE0080E18A
:1001F0008A95F1F700C00895CF93C82F0E94C000E0
:10020000C2BBC198C09A0E94BB0012BACF91089598
:10021000CF93DF93EC018881882331F021960E94EF
:10022000FC0089918111FBCFDF91CF910895815816
:10023000E62FF0E0EF59FF4F9081890F0E94CE002A
:10024000089561E081E00E9417018EE790E00E942E
:10025000080162E081E00E9417018CE890E00E94B2
:100260000801089581309105B1F08230910521F1A6
:10027000892B91F561E081E00E94170185E990E00A
:100280000E94080162E081E00E94170186EA90E086
:100290000E940801089561E081E00E94170187EB48
:1002A00090E00E94080162E081E00E94170188EC62
:1002B00090E00E940801089561E081E00E9417012A
:1002C00089ED90E00E94080162E081E00E94170140
:1002D00088EC90E00E940801089581309105B1F00A
:1002E0008230910521F1892B91F561E081E00E9436
:1002F00017018AEE90E00E94080162E081E00E940E
:1003000017018BEF90E00E940801089561E081E001
:100310000E9417018CE091E00E94080162E081E0F8
:100320000E9417018DE191E00E940801089561E0AB
:1003300081E00E9417018EE291E00E94080162E0D4
:1003400081E00E9417018DE191E00E94080108956B
:1003500061E081E00E9417018FE391E00E940801B3
:1003600062E081E00E9417018BEF90E00E9408019B
:10037000089561E081E00E94170180E591E00E940C
:10038000080162E081E00E9417018BEF90E00E947B
:100390000801089581309105D9F01CF4892B39F0BA
:1003A00008958230910529F10397A1F1089561E044
:1003B00081E00E94170181E691E00E94080162E05D
:1003C00081E00E9417018BEF90E00E9408010895E0
:1003D00061E081E00E94170182E791E00E9408013C
:1003E00062E081E00E9417018DE191E00E94080126
:1003F000089561E081E00E94170183E891E00E9486
:10040000080162E081E00E9417018DE191E00E9405
:100410000801089561E081E00E94170184E991E0FC
:100420000E94080162E081E00E9417018DE191E0E5
:100430000E940801089561E081E00E94170185EAA9
:1004400091E00E94080162E081E00E94170186EBC2
:1004500091E00E940801089561E081E00E94170187
:1004600087EC91E00E94080162E081E00E941701A0
:1004700086EB91E00E940801089561E081E00E940E
:10048000170188ED91E00E94080162E081E00E947E
:10049000170186EB91E00E940801089584B38E67EE
:1004A00084BB85B3817885BB0895C498880F991F54
:1004B0009093900480938F040895809167009091A9
:1004C0006800892B51F40E94D5051092880481E0C0
:1004D00090E090936800809367008091670090910E
:1004E00068000197E9F4809188049091660089176B
:1004F00080F420E3829FC001112484569B4F0E9408
:10050000E705C39882E090E09093680080936700CD
:1005100008958BE090E090936800809367000895C1
:100520008091670090916800029749F4C39AA99A54
:1005300083E090E090936800809367000895809135
:10054000670090916800039749F4A998AA9A84E0FB
:1005500090E0909368008093670008958091670011
:1005600090916800049749F4AA98AB9A85E090E0CE
:100570009093680080936700089580916700909140
:100580006800059749F4AB98AC9A86E090E09093A8
:1005900068008093670008958091670090916800DB
:1005A000069749F4AC98AD9A87E090E09093680084
:1005B0008093670008958091670090916800079785
:1005C00049F4AD98AE9A88E090E0909368008093EB
:1005D000670008958091670090916800089741F442
:1005E000AE9889E090E0909368008093670008954A
:1005F0008091670090916800099759F481E090E03C
:100600000E9455028AE090E0909368008093670012
:10061000089580916700909168000A9791F4809105
:100620008D0490918E04892BD1F4809188048F5F82
:100630008093880481E090E0909368008093670045
:10064000089580916700909168000B9741F40E9493
:10065000E2058FEF9FEF9093680080936700089505
:1006600090E09C01205331092A303105E0F4C901A2
:10067000D901AA0FBB1F8A0F9B1FDC01AA0FBB1F4A
:10068000AA0FBB1FA554BD4FE0918704F0E0E456CC
:10069000FB4F80E090E02D9120830196F0968C3006
:1006A0009105C9F731C09C01215431092931310527
:1006B00010F4C9010FC09C01215631092A313105BE
:1006C00010F4C90107C0809719F48AE190E002C0D4
:1006D0008BE190E0DC01AA0FBB1F8A0F9B1FDC019E
:1006E000AA0FBB1FAA0FBB1FAD5CBC4FE0918704D4
:1006F000F0E0E456FB4F80E090E02D9120830196DE
:10070000F0968C309105C9F7809187048F5F8093B4
:10071000870408952CE934E04CED56E070E060E089
:100720000AC01192019680339105D9F7205D3F4FA1
:100730002417350721F0F901872F962FF2CF08955E
:10074000CF93DF93EC010E948A038881882331F0E4
:1007500021960E94300389918111FBCFDF91CF91C7
:10076000089510929C0410929D04EEE9F4E08CEC44
:1007700094E02FEF2193E817F907E1F70895EF923E
:10078000FF920F931F93CF93DF93CDB7DEB72897D8
:100790000FB6F894DEBF0FBECDBF0E948A0380E281
:1007A00090E2DC0189839A83AB83BC838D839E8333
:1007B000AF83B8878091990490919A044AE0BE0172
:1007C0006F5F7F4F0E949C0A80916B0090916C003C
:1007D0007E0125E0E20EF11C4AE0B7010E949C0A6E
:1007E00082E0809387048E010F5F1F4FF801819193
:1007F0008F010E9430030E151F05C1F78BE2809315
:1008000087048E010B5F1F4F7E01F9E0EF0EF11C94
:10081000F80181918F010E9430030E151F05C1F769
:1008200028960FB6F894DEBF0FBECDBFDF91CF91F3
:100830001F910F91FF90EF900895CF92DF92FF925A
:100840000F931F93CF93DF93CDB7DEB72A970FB6E1
:10085000F894DEBF0FBECDBFFE0131960FEF1FEF44
:100860002AE030E00F5F1F4FB9010E94240A8193F4
:100870009193862F972F18161906A4F320918604BA
:10088000B8016F5F7F4F660F771F81E090E08C0F9C
:100890009D1F680F791FFB01B291A291BF0101500A
:1008A00011096894FF24F3F8F20EE22FF0E08F2D87
:1008B00090E0E817F9073CF5A295B295B07FBA270A
:1008C000A07FBA27CD01845E9D4F6C01EE0FFF1F04
:1008D000E352F94F4F2D50E0440F551F4352594FEB
:1008E000CF010197960121503109D9012C91DC01EA
:1008F0002C93D6018C918083B2E0CB0ED11C329622
:10090000E417F50769F7112314F02F2DC4CFF092E7
:1009100086042A960FB6F894DEBF0FBECDBFDF91D6
:10092000CF911F910F91FF90DF90CF90089510927B
:1009300087049C01AEE6B1E00E94570A2FEF33E036
:1009400040E050E00E94380ABA01A9014F5E5F4FB3
:100950006F4F7F4FECE9F4E08CEC94E01192E817D4
:10096000F907E1F78091850490918604891778F45E
:10097000E82FF0E0EE0FFF1FE452F94F90819093C3
:100980009C04918190939D048F5F8093850480E8FF
:1009900080939E04DB01CA01689412F8B595A7956F
:1009A000979587951694D1F790E0FC01E456FB4F9C
:1009B000DB01CA0187709927AA27B07867E0362F34
:1009C000381B21E001C0220F3A95EAF720830895F1
:1009D000CF93DF93EC0180918A04813031F58091CF
:1009E000670090916800019609F0C9C010928804D0
:1009F000109284048CE08093660082E080938704E8
:100A000080918904882329F089EE91E00E94A00357
:100A100004C08DEF91E00E94A00310926800109234
:100A2000670083E080938A04AAC080918A0483309F
:100A3000C1F48091670090916800019609F09FC011
:100A4000109287048CE080936600109288040E94C4
:100A5000BF03109268001092670084E080938A04BC
:100A60008EC080918A048430C1F480916700909197
:100A70006800019609F083C01092870481E080939A
:100A80006600109288040E94B103109268001092D0
:100A900067008AE080938A0472C080918A048A3059
:100AA00099F58091670090916800019609F067C000
:100AB0001092870481E080936600109288048091F0
:100AC00084048F5F809384049DEC899F912D112471
:100AD000929596959770382F28E2929F301911249D
:100AE000311107C0109286041092850490E00E9494
:100AF0001D04CE010E9497041092680010926700B6
:100B00008BE080938A043BC080918A048B3051F43F
:100B10008091670090916800019689F58AE0809342
:100B20008A042DC080918A048431C9F480916700C1
:100B300090916800019619F5109288048CE08093DA
:100B400066001092870488E092E00E94A003109251
:100B500068001092670085E180938A0410C080913C
:100B60008A04853161F48091670090916800019654
:100B700031F48AE090E00E94550210928A04DF91DD
:100B8000CF91089587B3806587BB88B38F7A88BB80
:100B9000089587B3886A87BB88B38F7588BBC39A6B
:100BA00081E58DB981E08EB908956E9A88B3806A27
:100BB00088BB80E390E01FB8779BFECF019700973A
:100BC000D1F708956E9888B38F7588BB0895FC019E
:100BD00020E030E081918FB9779BFECF2F5F3F4FB0
:100BE00020333105B9F708958091970490919804C6
:100BF0008639910509F4E8C264F48233910509F459
:100C0000ADC08436910509F452C1892B09F005C3A2
:100C100014C08A3F910509F483C22CF4883C9105E5
:100C200009F4A7C208958C3221E0920709F404C2A6
:100C30008E35914009F437C20895809169009091F2
:100C40006A00892B51F080919504909196040E943E
:100C5000320110926A001092690080919B048730E3
:100C600001F502C010929B040E9483008730D1F3EB
:100C700080919504909196040197909396048093A7
:100C8000950481E090E090936A00809369008091E0
:100C9000950490919604992324F41092960410924E
:100CA000950480919B048F3011F502C010929B0433
:100CB0000E9483008F30D1F3809195049091960427
:100CC0000196909396048093950481E090E0909330
:100CD0006A0080936900809195049091960403972F
:100CE00034F082E090E09093960480939504809194
:100CF0009504909196040197A1F480919B0486300D
:100D000081F4109296041092950481E090E0909303
:100D10006A008093690082E390E090939804809346
:100D200097048091950490919604029709F075C2FA
:100D300080919B04863009F070C210929604109244
:100D4000950481E090E090936A008093690084E6C6
:100D500090E090939804809397040895809169009F
:100D600090916A00892B51F080919504909196049E
:100D70000E946D0110926A001092690080919B049C
:100D8000873001F502C010929B040E9483008730D7
:100D9000D1F38091950490919604019790939604D5
:100DA0008093950481E090E090936A0080936900BD
:100DB0008091950490919604992324F410929604BE
:100DC0001092950480919B048F3011F502C010920F
:100DD0009B040E9483008F30D1F380919504909101
:100DE00096040196909396048093950481E090E098
:100DF00090936A0080936900809195049091960485
:100E0000039734F082E090E09093960480939504E9
:100E100080919504909196040197A1F480919B0490
:100E2000863081F4109296041092950481E090E04F
:100E300090936A00809369008EE591E09093980406
:100E40008093970480919504909196040297A1F461
:100E500080919B04863081F4109296041092950440
:100E600081E090E090936A00809369008CE291E0C9
:100E7000909398048093970480919B04883009F0A4
:100E8000CCC102C010929B040E9483008830D1F331
:100E900081E090E0909396048093950490936A008B
:100EA000809369001092980410929704089580919D
:100EB000690090916A00892B51F08091950490917E
:100EC00096040E94CA0110926A00109269008091F3
:100ED0009B04873001F502C010929B040E9483009E
:100EE0008730D1F380919504909196040197909367
:100EF00096048093950481E090E090936A0080933B
:100F000069008091950490919604992324F410929D
:100F100096041092950480919B048F3011F502C0C5
:100F200010929B040E9483008F30D1F3809195042E
:100F3000909196040196909396048093950481E095
:100F400090E090936A00809369008091950490915D
:100F50009604049734F083E090E090939604809395
:100F6000950480919504909196040197A1F4809145
:100F70009B04863081F4109296041092950481E0CF
:100F800090E090936A00809369008AEF90E09093DC
:100F90009804809397048091950490919604029709
:100FA000A1F480919B04863081F4109296041092F3
:100FB000950481E090E090936A008093690088EC4A
:100FC00090E0909398048093970480919504909179
:100FD00096040397A1F480919B04863081F41092CB
:100FE00096041092950481E090E090936A008093BB
:100FF000690086E990E0909398048093970480912B
:101000009B04883009F009C102C010929B040E9421
:1010100083008830D1F382E090E09093960480932F
:10102000950481E090E090936A00809369001092AB
:1010300098041092970408958091690090916A0035
:10104000892B31F00E94B90110926A001092690058
:1010500080919B048830E1F402C010929B040E94AE
:1010600083008830D1F382E090E0909396048093DF
:10107000950481E090E090936A008093690082E398
:1010800090E0909398048093970484E180938A047D
:1010900081E08093890480918A048111BEC081E03F
:1010A00080938A0408958091690090916A00892B49
:1010B00031F00E94A80110926A001092690080919C
:1010C0009B048830D1F402C010929B040E948300DC
:1010D0008830D1F381E090E090939604809395045A
:1010E00090936A008093690082E390E09093980463
:1010F0008093970484E180938A0483E00E947400C3
:1011000090932D0780932C071092890480918A0474
:10111000811103C081E080938A0480918A0408953C
:101120008091690090916A00892B31F00E941B0226
:1011300010926A001092690080919B04883009F037
:101140006CC002C010929B040E9483008830D1F3CF
:1011500081E090E0909396048093950490936A00C8
:101160008093690084E690E09093980480939704BC
:1011700008958091690090916A00892B31F00E9456
:101180002C0210926A001092690080919B048830B2
:1011900009F043C002C010929B040E948300883073
:1011A000D1F382E090E0909396048093950481E0DF
:1011B00090E090936A008093690084E690E09093B9
:1011C00098048093970408958091690090916A0033
:1011D000892B31F00E943D0210926A001092690042
:1011E00080919B048830C9F402C010929B040E9435
:1011F00083008830D1F383E090E09093960480934D
:10120000950481E090E090936A008093690084E601
:1012100090E0909398048093970408951F920F9202
:101220000FB60F9211242F933F934F935F936F93B9
:101230007F938F939F93AF93BF93EF93FF9380918F
:101240002E0790912F07019690932F0780932E07DA
:1012500085B3805885BB0E946300FF91EF91BF91D9
:10126000AF919F918F917F916F915F914F913F913E
:101270002F910F900FBE0F901F90189510922F076F
:1012800010922E0783B783BF83B7816083BF83B774
:10129000886083BF88B7826088BF89B7826089BF52
:1012A00012BE83E68CBF08951F920F920FB60F9265
:1012B00011242F933F934F935F936F937F938F935B
:1012C0009F93AF93BF93EF93FF938091910490917D
:1012D0009204A0919304B09194040196A11DB11DB4
:1012E0008093910490939204A0939304B0939404F8
:1012F0008091910490919204A0919304B0919404F0
:1013000083709927AA27BB27892B8A2B8B2B41F423
:101310008091670090916800992314F00E945D020B
:10132000609191047091920480919304909194043F
:1013300022E330E040E050E00E94380A672B682B3F
:10134000692BF1F480918A048823D1F080916000A8
:10135000909161000196909361008093600080916C
:101360008904882339F080916000909161000E9487
:10137000E80406C080912C0790912D070E94E80494
:1013800080918F0490919004181619068CF5809125
:101390008D0490918E04892B31F481E090E090933C
:1013A0008E0480938D0480918B0490918C04892B02
:1013B00029F010928C0410928B0406C081E090E01A
:1013C00090938C0480938B0498B380E4892788BB26
:1013D00080918B0490918C04892BA1F480918F04CF
:1013E0009091900401979093900480938F040AC089
:1013F00080918D0490918E04892B21F010928E049F
:1014000010928D04FF91EF91BF91AF919F918F91B9
:101410007F916F915F914F913F912F910F900FBEF0
:101420000F901F9018951FBC1EBC8EB589608EBD95
:101430001DBC1CBC8FEC97E09BBD8ABD1DBC1CBCB9
:1014400089B7806189BF089597FB072E16F4009431
:1014500007D077FD09D00E94660A07FC05D03EF44C
:10146000909581959F4F0895709561957F4F089550
:10147000052E97FB1EF400940E944F0A57FD07D0DB
:101480000E947A0A07FC03D04EF40C944F0A509540
:101490004095309521953F4F4F4F5F4F0895909560
:1014A0008095709561957F4F8F4F9F4F0895A29FB4
:1014B000B001B39FC001A39F700D811D1124911D28
:1014C000B29F700D811D1124911D0895AA1BBB1B95
:1014D00051E107C0AA1FBB1FA617B70710F0A61B34
:1014E000B70B881F991F5A95A9F780959095BC0155
:1014F000CD010895A1E21A2EAA1BBB1BFD010DC050
:10150000AA1FBB1FEE1FFF1FA217B307E407F507B3
:1015100020F0A21BB30BE40BF50B661F771F881F8F
:10152000991F1A9469F760957095809590959B0125
:10153000AC01BD01CF010895BB274A3031F4992396
:1015400022F4BDE2909581959F4F0C94A80ABB2789
:10155000FB015527AA27880F991FAA1FA41710F06F
:10156000A41B83955051B9F7A05DAA3308F0A95D7B
:10157000A193009779F7B111B1931192CB010C941B
:10158000C10ADC01FC01672F71917723E1F73297E3
:1015900004C07C916D9370836291AE17BF07C8F34E
:0615A0000895F894FFCF4E
:1015A6003200004014540CFFFF0100E80320202005
:1015B60020202020202020202020202020005468C9
:1015C60065726D616C204368617274005265636F69
:1015D6007264657200202020204D61696E204D6581
:1015E6006E75202020005337205570207C20533103
:1015F6003520446F776E005072696E7420436861BF
:1016060072742020202020005336204F4B20207C4F
:10161600202020202020202000436F6E66696775F9
:101626007265202020202020200020202050726972
:101636006E74204D656E752020200020202020200D
:1016460020207C202053382043414E005072696E82
:1016560074204C4452202020202020200053362085
:101666004F4B20207C202053382043414E0050729F
:10167600696E742054656D70202020202020005053
:1016860072696E74696E67204C44522020202000D7
:101696005072696E74696E672054656D70202020E3
:1016A60000202020436F6E666967204D656E7520A9
:1016B60020005365742053616D706C65205261740F
:1016C600652000536574204C445220506172616D50
:1016D600202020005365742054656D70205061727F
:1016E600616D202000536574205261746520253198
:1016F60020202020200053377C533135207C2020A9
:1017060053382043414E00536574204C44522025E3
:1017160031202020202020005365742054656D70F0
:1017260020253120202020200054656D70657261CF
:101736007475726520696E20646567BA004C445200
:101746002056616C75657300456E64206F66204D8A
:101756006561737572656D656E74001FC03FE02C20
:1017660020272021A03FE01FC00000208020803FCE
:10177600C03FE0200020000000000030C038E02C10
:1017860020262033E031C0000000001040306022E7
:101796002022203FE01DC0000000000600070005D3
:1017A6008024C03FE03FE02400000013E033E02245
:1017B6002022203E201C20000000001F803FC02267
:1017C6006022203E201C000000000000E000E038FF
:1017D600203C20062003E001E000001DC03FE0227F
:1017E6002022203FE01DC00000000001C023E0329F
:1017F600203E200FE003C000000000007CC6CEDEC5
:10180600D6F6E6C67C0000001030F03030303030BE
:10181600FC00000078CCCC0C183060CCFC0000003A
:1018260078CC0C0C380C0CCC780000000C1C3C6CF2
:10183600CCFE0C0C1E000000FCC0C0C0F80C0CCC8A
:10184600780000003860C0C0F8CCCCCC780000002E
:10185600FEC6C6060C1830303000000078CCCCCC62
:1018660078CCCCCC7800000078CCCCCC7C18183066
:10187600700000003078CCCCCCFCCCCCCC00000086
:10188600FC6666667C666666FC0000003C66C6C052
:10189600C0C0C6663C000000F86C66666666666C8C
:1018A600F8000000FE6260647C646062FE00000076
:1018B600FE6662647C646060F00000003C66C6C040
:1018C600C0CEC6663E000000CCCCCCCCFCCCCCCC8A
:1018D600CC000000783030303030303078000000F6
:1018E6001E0C0C0C0CCCCCCC78000000E6666C6CA4
:1018F600786C6C66E6000000F060606060626666A8
:10190600FE000000C6EEFEFED6C6C6C6C600000035
:10191600C6C6E6F6FEDECEC6C6000000386CC6C6F3
:10192600C6C6C66C38000000FC6666667C606060F1
:10193600F0000000386CC6C6C6CEDE7C0C1E000069
:10194600FC6666667C6C6666E600000078CCCCC0F9
:101956007018CCCC78000000FCB430303030303019
:1019660078000000CCCCCCCCCCCCCCCC7800000021
:10197600CCCCCCCCCCCCCC7830000000C6C6C6C60D
:10198600D6D66C6C6C000000CCCCCC783078CCCC45
:10199600CC000000CCCCCCCC7830303078000000C5
:1019A600FECE9818306062C6FE00000000000000FF
:1019B60000000000000000003C6666663C00000077
:0419C600000000001D
:00000001FF
