:100000000C94A7000C94C4000C94C4000C94C4007D
:100010000C94C4000C94C4000C94C4000C94B10E55
:100020000C94C4000C94C4000C94770E0C94C4007F
:100030000C94C4000C94C4000C94C4000C94C40030
:100040000C94C4000C94C4000C94C4000C94C40020
:100050000C94C40000407A10F35A00A0724E1809A4
:100060000010A5D4E80000E87648170000E40B541F
:10007000020000CA9A3B000000E1F50500008096EE
:100080009800000040420F000000A0860100000020
:10009000102700000000E8030000000064000000DA
:1000A00000000A00000000000100000000002C76A3
:1000B000D888DC674F0823DFC1DFAE59E1B1B796BE
:1000C000E5E3E453C63AE651997696E8E6C284261B
:1000D000EB898C9B62ED407C6FFCEFBC9C9F40F2F7
:1000E000BAA56FA5F490055A2AF75C936B6CF96773
:1000F0006DC11BFCE0E40D47FEF520E6B500D0ED38
:10010000902E0300943577050080841E080000209F
:100110004E0A000000C80C333333330F986E12833D
:100120001141EF8D2114893BE65516CFFEE6DB1811
:10013000D1844B381BF77C1D901DA4BBE4242032D6
:1001400084725E228100C9F124ECA1E53D271124CF
:100150001FBECFE5D8E0DEBFCDBF14E0A0E6B0E023
:10016000E4E9F6E202C005900D92A63DB107D9F789
:1001700027E0A6EDB4E001C01D92A639B207E1F771
:100180000E94C6000C9448130C9400000E94D402F4
:100190000E949B0E0E94710F0E94FB080E94FD04AA
:1001A0000E9402090E9477020E94EF0080E00E94F4
:1001B0004C020E9470032FE38DE093E021508040B9
:1001C0009040E1F700C000000E945F037894FFCFE9
:1001D0000E947C028093FB040E942D09089586B141
:1001E000876886B987B1806C87B9369A3699FECF11
:1001F000089597B19077892B87B9369A3699FECFB3
:1002000084B195B1089594B321E030E0082E02C086
:10021000220F331F0A94E2F7922B94BB45B3922F1F
:100220009095492345BB40EA4A95F1F744B394239E
:1002300094BB95B3922B95BB56E15A95F1F793B3C6
:1002400040E54A95F1F743B350E0082E02C05595BA
:1002500047950A94E2F740FF0CC0492F50E0242351
:100260003523A90102C0559547958A95E2F7CA0141
:10027000089582E0089581111EC024B381E090E0CA
:10028000AC0102C0440F551F6A95E2F7BA01822FF4
:10029000842B84BB95B3842F8095982395BB54E120
:1002A0005A95F1F794B3892384BB85B3682B65BB5A
:1002B00000C000C008958130F9F424B381E090E0DB
:1002C000AC0102C0440F551F6A95E2F7BA01822FB4
:1002D000842B84BB95B3842F8095982395BB53E0E2
:1002E0005A95F1F7000094B3892384BB85B3682B3A
:1002F00065BB82E18A95F1F7089594B321E030E07F
:10030000082E02C0220F331F0A94E2F7922B94BBEF
:1003100045B3922F9095492345BB000044B39423E5
:1003200094BB95B3922B95BB43E04A95F1F700003F
:1003300043B350E15A95F1F700C050E02423352330
:10034000A90102C0559547958A95E2F7CA0108951B
:10035000EF92FF920F931F93CF93DF93F82EC0E09D
:10036000D0E0E12C01E010E08F2D0E947D01813072
:1003700041F498010C2E02C0220F331F0A94E2F7B9
:10038000E22A2196C830D10579F78E2DDF91CF91E1
:100390001F910F91FF90EF9008951F93CF93DF93DC
:1003A000D82F162FC8E0612F8D2F81700E943B013E
:1003B000D695C150C1F700C000C00000DF91CF91B9
:1003C0001F910895DF92EF92FF920F931F93CF93A7
:1003D000DF93CDB7DEB729970FB6F894DEBF0FBE17
:1003E000CDBFD82E7E012AE0E20EF11CFE0131962F
:1003F0001192EE15FF05E1F78D2D0E940301811189
:100400002DC06D2D8CEC0E94CD016D2D84E40E94D9
:10041000CD0109EE13E001C000008D2D0E94A8015E
:100420008F3F29F40150110901151105A9F78D2DF0
:100430000E9403016D2D8CEC0E94CD016D2D8EEB81
:100440000E94CD018E010F5F1F4F8D2D0E94A801CC
:10045000F80181938F01EE16FF06B9F76981629565
:100460006F708A81F0E18F9FC0011124682B77277C
:1004700067FD7095872F972F0E94B50F29960FB6AD
:10048000F894DEBF0FBECDBFDF91CF911F910F91CA
:10049000FF90EF90DF9008951F93CF93DF93182F75
:1004A0000E94030181111FC0612F8CEC0E94CD01BD
:1004B000612F84E40E94CD01C9EED3E001C00000A9
:1004C000812F0E94A8018F3F19F421972097B9F737
:1004D000812F0E940301612F8CEC0E94CD01612FBE
:1004E0008EEB0E94CD01DF91CF911F91089580E79F
:1004F0008ABB8FE08BBB089587E38BBBCB9B1CC073
:10050000CA9B1CC0C99B1CC0C89B1CC087E58BBB79
:10051000CB9B1AC0CA9B1AC0C99B1AC0C89B1AC0E1
:1005200087E68BBBCB9B18C0CA9B18C0C99B18C061
:10053000C89918C080E1089581E0089586E0089583
:100540008AE008958EE0089582E0089587E0089596
:100550008BE008958FE0089583E0089588E0089582
:100560008CE0089580E00895C29A00000000C298CF
:10057000089511BAC19AC09882B3803528F00E94BC
:10058000B40282B38035D8F78FEF81BB0895CF9343
:10059000C82F0E94B902C2BB88B38C7F88BB0E945F
:1005A000B40212BACF91089587B3876087BB8BE7F7
:1005B00092E90197F1F700C0000081E00E94C702B4
:1005C00087E893E10197F1F700C0000088E30E94FB
:1005D000C70296EA9A95F1F700C08CE00E94C70224
:1005E00086EA8A95F1F700C00895CF93C82F0E943C
:1005F000B902C2BBC198C09A0E94B40212BACF918C
:100600000895CF93DF93EC018881882331F0219600
:100610000E94F50289918111FBCFDF91CF9108955E
:10062000CF93DF9300D000D000D0CDB7DEB74AE043
:10063000BE016F5F7F4F0E94BD10CE0101960E94E8
:10064000010326960FB6F894DEBF0FBECDBFDF9133
:10065000CF910895CF92DF92EF92FF920F931F9365
:10066000CF93DF93CDB7DEB7CDB6DEB6EDB7FEB72D
:10067000E41BF1090FB6F894FEBF0FBEEDBF319633
:100680007F018F010E949C10C7010E9401030FB6D9
:10069000F894DEBE0FBECDBEDF91CF911F910F91BA
:1006A000FF90EF90DF90CF9008958158E62FF0E013
:1006B000EB59FF4F9081890F0E94C702089561E0B6
:1006C00081E00E9455038FE690E00E94010362E002
:1006D00081E00E9455038FE690E00E940103089597
:1006E00061E081E00E94550380E890E00E940103F0
:1006F00062E081E00E9455038EE890E00E940103D1
:10070000089581309105B1F08230910521F1892B56
:1007100091F561E081E00E94550387E990E00E9435
:10072000010362E081E00E94550388EA90E00E94A4
:100730000103089561E081E00E94550389EB90E098
:100740000E94010362E081E00E9455038AEC90E080
:100750000E940103089561E081E00E9455038BED42
:1007600090E00E94010362E081E00E9455038AEC60
:1007700090E00E940103089581309105B1F082302C
:10078000910521F1892B91F561E081E00E945503EB
:100790008CEE90E00E94010362E081E00E9455032C
:1007A0008DEF90E00E940103089561E081E00E94D6
:1007B00055038EE091E00E94010362E081E00E9417
:1007C00055038FE191E00E940103089561E081E00B
:1007D0000E94550380E391E00E94010362E081E002
:1007E0000E9455038FE191E00E940103089561E0AA
:1007F00081E00E94550381E491E00E94010362E0E0
:1008000081E00E9455038DEF90E00E94010308955E
:1008100061E081E00E94550382E591E00E940103BE
:1008200062E081E00E9455038DEF90E00E94010399
:10083000089581309105D9F01CF4892B39F0089581
:100840008230910529F10397A1F1089561E081E0DB
:100850000E94550383E691E00E94010362E081E07B
:100860000E9455038DEF90E00E940103089561E01E
:1008700081E00E94550384E791E00E94010362E059
:1008800081E00E9455038FE191E00E9401030895E9
:1008900061E081E00E94550385E891E00E94010338
:1008A00062E081E00E9455038FE191E00E94010324
:1008B000089561E081E00E94550386E991E00E947D
:1008C000010362E081E00E9455038FE191E00E9404
:1008D0000103089561E081E00E94550387EA91E0F9
:1008E0000E94010361E08CE00E9455036091640066
:1008F0007091650084EF91E00E941910882777FDC0
:100900008095982F0E94B50F21E043E00E942A03B2
:1009100062E081E00E94550388EB91E00E940103B0
:10092000089561E081E00E9455038AED91E00E9404
:10093000010361E08CE00E9455038091D8049091FE
:10094000D9040E94100362E081E00E94550388EB05
:1009500091E00E940103089561E081E00E94550347
:100960008BEE91E00E94010361E08AE00E94550352
:1009700080916200909163000E94100362E081E028
:100980000E94550388EB91E00E940103089561E005
:1009900081E00E9455038DE092E00E94010361E036
:1009A0008CE00E9455038091D6049091D7040E9458
:1009B000100362E081E00E94550388EB91E00E9401
:1009C0000103089561E081E00E9455038EE192E009
:1009D0000E94010361E08AE00E945503809160005B
:1009E000909161000E94100362E081E00E94550333
:1009F00088EB91E00E940103089584B38E6784BB65
:100A000085B3817885BB0895C498880F991F90930A
:100A1000EA048093E904089580916B0090916C0042
:100A2000892B51F40E940E091092E20481E090E0BB
:100A300090936C0080936B0080916B0090916C00A0
:100A40000197E9F48091E20490916A00891780F49B
:100A500020E3829FC00111248C5F9A4F0E942009DD
:100A6000C39882E090E090936C0080936B000895AF
:100A70008BE090E090936C0080936B0008958091E0
:100A80006B0090916C00029749F4C39AA99A83E095
:100A900090E090936C0080936B00089580916B00C0
:100AA00090916C00039749F4A998AA9A84E090E089
:100AB00090936C0080936B00089580916B009091EF
:100AC0006C00049749F4AA98AB9A85E090E0909363
:100AD0006C0080936B00089580916B0090916C0086
:100AE000059749F4AB98AC9A86E090E090936C003F
:100AF00080936B00089580916B0090916C00069735
:100B000049F4AC98AD9A87E090E090936C008093A4
:100B10006B00089580916B0090916C00079749F4E9
:100B2000AD98AE9A88E090E090936C0080936B0053
:100B3000089580916B0090916C00089741F4AE98F5
:100B400089E090E090936C0080936B000895809111
:100B50006B0090916C00099759F481E090E00E943D
:100B600004058AE090E090936C0080936B000895F8
:100B700080916B0090916C000A9791F48091E7044A
:100B80009091E804892BD1F48091E2048F5F8093E7
:100B9000E20481E090E090936C0080936B000895F4
:100BA00080916B0090916C000B9741F40E941B099F
:100BB0008FEF9FEF90936C0080936B00089590E00F
:100BC0009C01205331092A303105E0F4C901D901D3
:100BD000AA0FBB1F8A0F9B1FDC01AA0FBB1FAA0F06
:100BE000BB1FAF5FBC4FE091E104F0E0EC5FFA4F58
:100BF00080E090E02D9120830196F0968C30910555
:100C0000C9F73DC09C01215431092931310510F447
:100C1000C9011BC09C01215631092A31310510F44C
:100C2000C90113C08032910541F0803B910541F02C
:100C30008D9749F48CE190E008C08AE190E005C00E
:100C40008BE190E002C08AE190E0DC01AA0FBB1FBB
:100C50008A0F9B1FDC01AA0FBB1FAA0FBB1FA7583F
:100C6000BC4FE091E104F0E0EC5FFA4F80E090E0EF
:100C70002D9120830196F0968C309105C9F78091D3
:100C8000E1048F5F8093E104089524E035E044E4BB
:100C900057E070E060E00AC0119201968033910540
:100CA000D9F7205D3F4F2417350721F0F901872F31
:100CB000962FF2CF0895CF93DF93EC010E94450663
:100CC0008881882331F021960E94DF058991811166
:100CD000FBCFDF91CF910895109204051092050586
:100CE000E6E0F5E084E395E02FEF2193E817F907BC
:100CF000E1F70895EF92FF920F931F93CF93DF9345
:100D0000CDB7DEB728970FB6F894DEBF0FBECDBFC4
:100D10000E9445068091E304813049F4009160000F
:100D2000109161008091D6049091D70408C0009181
:100D30006200109163008091D8049091D90440E240
:100D400050E2BA0149835A836B837C834D835E836F
:100D50006F8378874AE0BE016F5F7F4F0E94BD10AE
:100D60007E0185E0E80EF11C4AE0B701C8010E944F
:100D7000BD1082E08093E1048E010F5F1F4FF801E8
:100D800081918F010E94DF050E151F05C1F78BE2CF
:100D90008093E1048E010B5F1F4F7E01F9E0EF0E9F
:100DA000F11CF80181918F010E94DF050E151F05CE
:100DB000C1F728960FB6F894DEBF0FBECDBFDF9106
:100DC000CF911F910F91FF90EF900895CF92DF92F6
:100DD000FF920F931F93CF93DF93CDB7DEB72A9780
:100DE0000FB6F894DEBF0FBECDBFFE0131960FEFF8
:100DF0001FEF2AE030E00F5F1F4FB9010E9419106A
:100E000081939193862F972F18161906A4F320919A
:100E1000E004B8016F5F7F4F660F771F81E090E0BD
:100E20008C0F9D1F680F791FFB01B291A291BF012A
:100E3000015011096894FF24F3F8F20EE22FF0E05C
:100E40008F2D90E0E817F9073CF5A295B295B07F99
:100E5000BA27A07FBA27CD018E599D4F6C01EE0FA6
:100E6000FF1FEB5BF84F4F2D50E0440F551F4B5BBE
:100E7000584FCF010197960121503109D9012C918A
:100E8000DC012C93D6018C918083B2E0CB0ED11C77
:100E90003296E417F50769F7112314F02F2DC4CF0C
:100EA000F092E0042A960FB6F894DEBF0FBECDBFD5
:100EB000DF91CF911F910F91FF90DF90CF90089518
:100EC000CF92DF92EF92FF920F931F931092E10463
:100ED0002091E304213049F4E0916000F091610039
:100EE000C090D604D090D70408C0E0916200F09181
:100EF0006300C090D804D090D904EE24D7FCE094CD
:100F0000FE2CA0E0B0E09C01AD012C193D094E097A
:100F10005F09AEE6B1E00E945B108F01222717FD4A
:100F20002095322FA90198012C193D094E095F091E
:100F30000E942D10BA01A9014F5E5F4F6F4F7F4F86
:100F4000E4E0F5E084E395E01192E817F907E1F7B2
:100F50008091DF049091E004891778F4E82FF0E0A5
:100F6000EE0FFF1FEC5BF84F908190930405918189
:100F7000909305058F5F8093DF0480E880930605DA
:100F8000DB01CA0177231CF40796A11DB11D6894EB
:100F900012F8B595A795979587951694D1F790E097
:100FA000FC01EC5FFA4FDB01CA0187709927AA2781
:100FB000B078BB2354F40197A109B109886F9F6FE2
:100FC000AF6FBF6F0196A11DB11D67E0362F381BB3
:100FD00021E001C0220F3A95EAF720831F910F917B
:100FE000FF90EF90DF90CF900895CF93DF93EC01C7
:100FF0008091E404813041F580916B0090916C0008
:10100000019609F0F5C01092E2041092DE041092ED
:10101000DD048CE080936A0082E08093E10480919B
:10102000E304882329F08FE292E00E945B0604C06B
:1010300083E492E00E945B0610926C0010926B00B9
:1010400083E08093E404D4C08091E4048330C1F44D
:1010500080916B0090916C00019609F0C9C01092CC
:10106000E1048CE080936A001092E2040E947A0608
:1010700010926C0010926B0084E08093E404B8C07E
:101080008091E4048430C1F480916B0090916C00F5
:10109000019609F0ADC01092E10481E080936A00EE
:1010A0001092E2040E946C0610926C0010926B0089
:1010B00085E08093E4049CC08091E404853059F479
:1010C00080916B0090916C00019609F091C08AE0CC
:1010D0008093E4048DC08091E4048A3009F04CC010
:1010E00080916B0090916C00019609F081C0109284
:1010F000E10481E080936A001092E2044091DD04F3
:101100005091DE044F5F5F4F5093DE044093DD0447
:10111000403187E2580738F01092DE041092DD0467
:1011200080E090E018C09A01ADECBCEC0E944C103D
:1011300096958795929582958F7089279F708927BC
:1011400068E2689F9001699F300D11244217530790
:1011500041F4842F952F1092E0041092DF040E9436
:10116000E606CE010E94600710926C0010926B00A0
:101170008BE08093E4043CC08091E4048B3051F414
:1011800080916B0090916C00019691F58AE08093BC
:10119000E4042EC08091E4048431D1F480916B008A
:1011A00090916C00019621F51092E2048CE08093FE
:1011B0006A0082E08093E1048EE492E00E945B0684
:1011C00010926C0010926B0085E18093E40410C0D3
:1011D0008091E404853161F480916B0090916C0002
:1011E000019631F482E390E00E9404051092E40439
:1011F000DF91CF91089587B3806587BB88B38F7ADD
:1012000088BB089587B3886A87BB88B38F7588BB0E
:10121000C39A81E58DB981E08EB908956E9A88B33D
:10122000806A88BB80E390E01FB8779BFECF019770
:101230000097D1F708956E9888B38F7588BB08958D
:10124000FC0120E030E081918FB9779BFECF2F5FCA
:101250003F4F20333105B9F708958091F104909103
:10126000F2048A3F910509F461C38CF4823391053D
:1012700009F4C4C01CF4892B21F10895843691052A
:1012800009F477C18639910509F4D6C20895823CE4
:1012900021E0920709F4AFC454F48C3221E09207A4
:1012A00009F4B8C38039914009F42EC40895843FED
:1012B00021E0920709F434C28632924009F479C2DF
:1012C000089580916D0090916E00892B51F080916E
:1012D000EF049091F0040E94810310926E0010922E
:1012E0006D008091FB04873031F58FE493EC01971A
:1012F000F1F700C0000002C01092FB040E947C02C3
:101300008730D1F38091EF049091F004019790938E
:10131000F0048093EF0481E090E090936E0080935E
:101320006D008091EF049091F004992324F41092C1
:10133000F0041092EF048091FB048F3041F58FE4AC
:1013400093EC0197F1F700C0000002C01092FB047B
:101350000E947C028F30D1F38091EF049091F004D1
:1013600001969093F0048093EF0481E090E09093D5
:101370006E0080936D008091EF049091F0040397CC
:1013800034F082E090E09093F0048093EF04809139
:10139000EF049091F0040197A1F48091FB04863052
:1013A00081F41092F0041092EF0481E090E09093A9
:1013B0006E0080936D0082E390E09093F20480933E
:1013C000F1048091EF049091F004029709F08EC42B
:1013D0008091FB04863009F089C41092F0041092C9
:1013E000EF0481E090E090936E0080936D0084E6BE
:1013F00090E09093F2048093F104089580916D0041
:1014000090916E00892B51F08091EF049091F0043F
:101410000E94BC0310926E0010926D008091FB043C
:10142000873031F58FE493EC0197F1F700C00000AD
:1014300002C01092FB040E947C028730D1F380919D
:10144000EF049091F00401979093F0048093EF04DF
:1014500081E090E090936E0080936D008091EF04A6
:101460009091F004992324F41092F0041092EF0468
:101470008091FB048F3041F58FE493EC0197F1F7F5
:1014800000C0000002C01092FB040E947C028F305A
:10149000D1F38091EF049091F00401969093F004C1
:1014A0008093EF0481E090E090936E0080936D0054
:1014B0008091EF049091F004039734F082E090E083
:1014C0009093F0048093EF048091EF049091F004E6
:1014D0000197A1F48091FB04863081F41092F0040E
:1014E0001092EF0481E090E090936E0080936D0085
:1014F00086E292E09093F2048093F1048091EF04ED
:101500009091F0040297A1F48091FB04863081F45D
:101510001092F0041092EF0481E090E090936E003E
:1015200080936D0084EF91E09093F2048093F10436
:101530008091FB04883009F0D9C38FE493EC0197C4
:10154000F1F700C0000002C01092FB040E947C0270
:101550008830D1F381E090E09093F0048093EF0421
:1015600090936E0080936D001092F2041092F1043B
:10157000089580916D0090916E00892B51F08091BB
:10158000EF049091F0040E94190410926E001092E2
:101590006D008091FB04873031F58FE493EC019767
:1015A000F1F700C0000002C01092FB040E947C0210
:1015B0008730D1F38091EF049091F00401979093DC
:1015C000F0048093EF0481E090E090936E008093AC
:1015D0006D008091EF049091F004992324F410920F
:1015E000F0041092EF048091FB048F3041F58FE4FA
:1015F00093EC0197F1F700C0000002C01092FB04C9
:101600000E947C028F30D1F38091EF049091F0041E
:1016100001969093F0048093EF0481E090E0909322
:101620006E0080936D008091EF049091F004049718
:1016300034F083E090E09093F0048093EF04809185
:10164000EF049091F0040197A1F48091FB0486309F
:1016500081F41092F0041092EF0481E090E09093F6
:101660006E0080936D0086E990E09093F204809381
:10167000F1048091EF049091F0040297A1F480911D
:10168000FB04863081F41092F0041092EF0481E0A4
:1016900090E090936E0080936D008AEF90E09093BD
:1016A000F2048093F1048091EF049091F004039789
:1016B000A1F48091FB04863081F41092F004109222
:1016C000EF0481E090E090936E0080936D0080E9DC
:1016D00091E09093F2048093F1048091FB048830B0
:1016E00009F004C38FE493EC0197F1F700C0000008
:1016F00002C01092FB040E947C028830D1F382E089
:1017000090E09093F0048093EF0481E090E0909358
:101710006E0080936D001092F2041092F10408950F
:1017200080916D0090916E00892B31F00E94080429
:1017300010926E0010926D008091FB04883011F5BC
:101740008FE493EC0197F1F700C0000002C0109203
:10175000FB040E947C028830D1F382E090E09093F9
:10176000F0048093EF0481E090E090936E0080930A
:101770006D0082E390E09093F2048093F10484E1A1
:101780008093E40481E08093E3048091E404811178
:1017900003C081E08093E4048091E4048A3009F07E
:1017A000A5C280E00E94E2010E94820F6093DC04E7
:1017B000089580916D0090916E00892B31F00E9408
:1017C000F70310926E0010926D008091FB04883038
:1017D00001F58FE493EC0197F1F700C0000002C01F
:1017E0001092FB040E947C028830D1F381E090E0EB
:1017F0009093F0048093EF0490936E0080936D00BB
:1018000082E390E09093F2048093F10484E180936A
:10181000E40483E00E94F9009093DB048093DA04EF
:101820001092E3048091E404811103C081E080936D
:10183000E4048091E404089580916D0090916E001D
:10184000892B31F00E946A0410926E0010926D0094
:101850008091FB04873009F58FE493EC0197F1F751
:1018600000C0000080916400909165000A979093F9
:1018700065008093640081E090E090936E00809317
:101880006D008091640090916500C29734F482E30A
:1018900090E090936500809364008091FB048F300A
:1018A00011F58FE493EC0197F1F700C000008091EF
:1018B0006400909165000A9690936500809364009F
:1018C00081E090E090936E0080936D0080916400C1
:1018D00090916500853F914034F084EF91E09093C2
:1018E0006500809364008091FB04883009F0FEC19C
:1018F0008FE493EC0197F1F700C0000002C0109252
:10190000FB040E947C028830D1F381E090E0909348
:10191000F0048093EF0490936E0080936D0084E652
:1019200090E09093F2048093F104089580916D000B
:1019300090916E00892B31F00E94910410926E00FC
:1019400010926D008091FB04873011F58FE493ECC9
:101950000197F1F700C000008091D8049091D9045C
:1019600001969093D9048093D80481E090E09093FD
:101970006E0080936D008091D8049091D9048115F8
:10198000944034F08FEF93E09093D9048093D8047F
:101990008091FB048F30F9F48FE493EC0197F1F719
:1019A00000C000008091D8049091D90401979093D1
:1019B000D9048093D80481E090E090936E008093E6
:1019C0006D008091D8049091D904992324F4109249
:1019D000D9041092D8048091FB04883009F086C1A4
:1019E0008FE493EC0197F1F700C0000002C0109261
:1019F000FB040E947C028830D1F381E090E0909358
:101A00006E0080936D008CE291E09093F2048093DD
:101A1000F104089580916D0090916E00892B31F052
:101A20000E94AC0410926E0010926D008091FB0435
:101A3000873011F58FE493EC0197F1F700C00000B7
:101A4000809162009091630001969093630080936F
:101A5000620081E090E090936E0080936D00809131
:101A60006200909163008115944034F08FEF93E011
:101A700090936300809362008091FB048F30F9F4AF
:101A80008FE493EC0197F1F700C0000080916200B1
:101A9000909163000197909363008093620081E0CE
:101AA00090E090936E0080936D0080916200909121
:101AB0006300992324F410926300109262008091D5
:101AC000FB04883009F012C18FE493EC0197F1F721
:101AD00000C0000002C01092FB040E947C0288300B
:101AE000D1F382E090E09093F0048093EF0481E0E2
:101AF00090E090936E0080936D0084E690E0909368
:101B0000F2048093F104089580916D0090916E002D
:101B1000892B31F00E94C70410926E0010926D0064
:101B20008091FB04873011F58FE493EC0197F1F776
:101B300000C000008091D6049091D7040196909344
:101B4000D7048093D60481E090E090936E00809358
:101B50006D008091D6049091D7048E37910534F0B2
:101B60008DE790E09093D7048093D6048091FB0496
:101B70008F3011F58FE493EC0197F1F700C000006E
:101B80008091D6049091D70401979093D7048093C5
:101B9000D60481E090E090936E0080936D00809178
:101BA000D6049091D704893C9F4F34F489EC9FEF81
:101BB0009093D7048093D6048091FB04883009F079
:101BC00095C08FE493EC0197F1F700C0000002C0CC
:101BD0001092FB040E947C028830D1F381E090E0F7
:101BE00090936E0080936D0082EC91E09093F204EC
:101BF0008093F104089580916D0090916E00892B7F
:101C000031F00E94E20410926E0010926D008091FB
:101C1000FB04873011F58FE493EC0197F1F700C0D6
:101C200000008091600090916100019690936100A6
:101C30008093600081E090E090936E0080936D004F
:101C400080916000909161008E37910534F08DE7AE
:101C500090E090936100809360008091FB048F304E
:101C600011F58FE493EC0197F1F700C0000080912B
:101C700060009091610001979093610080936000F3
:101C800081E090E090936E0080936D008091600001
:101C900090916100883D9F4F34F488ED9FEF9093C1
:101CA0006100809360008091FB048830F9F48FE438
:101CB00093EC0197F1F700C0000002C01092FB0402
:101CC0000E947C028830D1F383E090E09093F0048E
:101CD0008093EF0481E090E090936E0080936D001C
:101CE00084E690E09093F2048093F10408951F92AB
:101CF0000F920FB60F9211242F933F934F935F9340
:101D00006F937F938F939F93AF93BF93EF93FF93C3
:101D10000E94E800FF91EF91BF91AF919F918F9149
:101D20007F916F915F914F913F912F910F900FBED7
:101D30000F901F901895109295071092940783B7F3
:101D400083BF83B7816083BF83B7886083BF88B751
:101D5000826088BF89B7826089BF12BE83E68CBF6C
:101D600008951F920F920FB60F9211242F933F9355
:101D70004F935F936F937F938F939F93AF93BF9393
:101D8000EF93FF938091EB049091EC04A091ED040C
:101D9000B091EE040196A11DB11D8093EB049093C8
:101DA000EC04A093ED04B093EE048091EB049091C9
:101DB000EC04A091ED04B091EE0483709927AA275A
:101DC000BB27892B8A2B8B2B41F480916B00909140
:101DD0006C00992314F00E940C056091EB04709143
:101DE000EC048091ED049091EE0420916400309118
:101DF0006500442737FD4095542F0E942D10672B16
:101E0000682B692BD9F48091E4048823B9F0809180
:101E1000DC048F5F8093DC048091E304882341F02D
:101E20008091DC04992787FD90950E94F50706C0F4
:101E30008091DA049091DB040E94F5078091E90417
:101E40009091EA04181619068CF58091E704909198
:101E5000E804892B31F481E090E09093E8048093CA
:101E6000E7048091E5049091E604892B29F0109213
:101E7000E6041092E50406C081E090E09093E60449
:101E80008093E50498B380E4892788BB8091E504BA
:101E90009091E604892BA1F48091E9049091EA04E1
:101EA00001979093EA048093E9040AC08091E704C3
:101EB0009091E804892B21F01092E8041092E70435
:101EC000FF91EF91BF91AF919F918F917F916F9112
:101ED0005F914F913F912F910F900FBE0F901F90E8
:101EE00018951FBC1EBC8EB589608EBD1DBC1CBC68
:101EF0008FEC97E09BBD8ABD1DBC1CBC89B780617F
:101F000089BF089504D06894B1118DC0089570D030
:101F100088F09F5790F0B92F9927B751A0F0D1F0D2
:101F2000660F771F881F991F1AF0BA95C9F712C05C
:101F3000B13081F077D0B1E0089574C0672F782F69
:101F40008827B85F39F0B93FCCF3869577956795C8
:101F5000B395D9F73EF490958095709561957F4F34
:101F60008F4F9F4F0895E89409C097FB3EF49095DA
:101F70008095709561957F4F8F4F9F4F9923A9F062
:101F8000F92F96E9BB279395F695879577956795F1
:101F9000B795F111F8CFFAF4BB0F11F460FF1BC035
:101FA0006F5F7F4F8F4F9F4F16C0882311F096E9C8
:101FB00011C0772321F09EE8872F762F05C0662376
:101FC00071F096E8862F70E060E02AF09A95660F2F
:101FD000771F881FDAF7880F9695879597F90895E8
:101FE00057FD9058440F551F59F05F3F71F04795CA
:101FF000880F97FB991F61F09F3F79F087950895AF
:10200000121613061406551FF2CF4695F1DF08C0CD
:10201000161617061806991FF1CF869571056105EA
:1020200008940895E894BB2766277727CB0197F992
:10203000089597FB072E16F4009407D077FD09D07A
:102040000E94661007FC05D03EF4909581959F4F45
:102050000895709561957F4F0895052E97FB1EF4A6
:1020600000940E94441057FD07D00E947A1007FC8C
:1020700003D04EF40C944410509540953095219522
:102080003F4F4F4F5F4F08959095809570956195A4
:102090007F4F8F4F9F4F0895A29FB001B39FC00104
:1020A000A39F700D811D1124911DB29F700D811D84
:1020B0001124911D08950E944C10A59F900DB49F6E
:1020C000900DA49F800D911D11240895AA1BBB1B88
:1020D00051E107C0AA1FBB1FA617B70710F0A61B28
:1020E000B70B881F991F5A95A9F780959095BC0149
:1020F000CD010895A1E21A2EAA1BBB1BFD010DC044
:10210000AA1FBB1FEE1FFF1FA217B307E407F507A7
:1021100020F0A21BB30BE40BF50B661F771F881F83
:10212000991F1A9469F760957095809590959B0119
:10213000AC01BD01CF010895EF920F931F93CF9390
:10214000DF93E80147FF02C034E101C034E0E42F2F
:10215000FF27E7FDF095F7FF03C0F195E195F10941
:10216000E32E022F2E2FAE010E94E210CE01DF914E
:10217000CF911F910F91EF900895BB274A3031F412
:10218000992322F4BDE2909581959F4F0C94C9103C
:10219000BB27FB015527AA27880F991FAA1FA41741
:1021A00010F0A41B83955051B9F7A05DAA3308F035
:1021B000A95DA193009779F7B111B1931192CB0169
:1021C0000C9438136F927F929F92AF92BF92CF92EE
:1021D000DF92EF92FF920F931F93CF93DF93CDB7D0
:1021E000DEB729970FB6F894DEBF0FBECDBF6A01E8
:1021F000B22E102F0C3320F4FF24F394F00E02C003
:102200004CE3F42E0F2D27E0AE014F5F5F4F0E948D
:1022100060127981272F2970213031F0E1FC06C04E
:10222000E0FC06C060E005C06DE203C06BE201C0E7
:1022300060E2AE2DA07173FF36C0662311F084E01A
:1022400001C083E08B1510F4B81A01C0B12CA111A4
:102250000BC0F6018B2D90E2882319F091938150E9
:10226000FBCFCB0CD11CB12C662331F0F60160837F
:1022700096012F5F3F4F6901C6010396E2FE05C03C
:102280002EE4F601208331E404C02EE6F60120831B
:1022900031E631832283FC012B2D30E22223F1F140
:1022A00031932150FBCF72FF40C0662311F084E0D0
:1022B00001C083E08B1510F4B81A01C0B12CA11134
:1022C0000BC0F6018B2D90E2882319F09193815079
:1022D000FBCFCB0CD11CB12C662331F0F60160830F
:1022E00096012F5F3F4F6901C6010396E2FE07C0CA
:1022F00029E4F60120832EE4218326E406C029E6A2
:10230000F60120832EE6218326E62283FC012B2D75
:1023100030E2222319F031932150FBCFFC01EB0D69
:10232000F11D10828EEF9FEFB7C0B1E0611101C0C7
:10233000B0E04B2F50E01816190624F49C012F5FD3
:102340003F4F02C021E030E0240F351F112329F058
:10235000412F50E04F5F5F4F02C040E050E0420F1E
:10236000531F2B2D30E04217530714F4B41A01C049
:10237000B12C2E2D287159F4F6012B2D30E2222399
:1023800019F031932150FBCFCB0CD11CB12CBB23C6
:1023900031F0F601608396012F5F3F4F6901A11173
:1023A0000BC0F6012B2D30E3222319F0319321507D
:1023B000FBCFCB0CD11CB12CF80E0A81372F30711A
:1023C000A32E74FF03C0013309F4FA941F142CF4F4
:1023D0002F2D293018F028E001C021E0682F392F77
:1023E00097FF02C060E030E0462F532F612C712C24
:1023F0003EE2932EBC01621B71099B01DC01A41B10
:10240000B50BE1E0F0E0EC0FFD1FAE0FBF1FE12EBA
:10241000F12CF194E194F1084F3FFFEF5F0731F4A5
:10242000F6019082B6016F5F7F4F6B0184179507AD
:102430004CF02417350734F4BD01660D771DFB0100
:10244000118101C010E341505109FFEF6F1A7F0A5B
:10245000B6016F5F7F4F4E155F0524F0F6011083C4
:102460006B01DACF4817590739F4063320F40533E6
:1024700019F4A11001C011E3F6011083FB018B2DAB
:1024800090E2882319F091938150FBCFFB01EB0D73
:10249000F11D108280E090E029960FB6F894DEBF1F
:1024A0000FBECDBFDF91CF911F910F91FF90EF90A5
:1024B000DF90CF90BF90AF909F907F906F900895E6
:1024C000283008F027E03327DA01990F311D87FD06
:1024D000916000966105710539F432602E5F3D937D
:1024E00030E32A95E1F708959F3F30F08038710579
:1024F000610509F03C5F3C5F3D93913008F08068D6
:10250000911DDF93CF931F930F93FF92EF92192F9B
:10251000987F9695E92F96959695E90FFF27E255B6
:10252000FF4F99273327EE24FF24A701E7010590E9
:102530000894079428F4360FE71EF81E491F511D12
:10254000660F771F881F991F0694A1F705900794BF
:1025500028F4E70EF81E491F561FC11D770F881F6C
:10256000991F661F0694A1F70590079428F4F80EAA
:10257000491F561FC71FD11D880F991F661F771F40
:102580000694A1F70590079420F4490F561FC71F22
:10259000D81F990F661F771F881F0694A9F784918B
:1025A0001095177041F0D695C79557954795F794B4
:1025B000E7941A95C1F7E4E5F0E068941590159159
:1025C00035916591959105907FE27395E118F10A37
:1025D000430B560BC90BD009C0F7E10CF11E431F8A
:1025E000561FC91FD01D7EF4703311F48A95E6CFB3
:1025F000E894015030F0080F0AF40027021708F49D
:10260000202F2395022F7A3328F079E37D932A95A2
:10261000E9F710C07D932A9589F6069497956795FA
:10262000379517951794E118F10A430B560BC90B10
:10263000D00998F023957E9173957A3308F070E372
:102640007C932013B8F77E9170617D9330F0839571
:1026500071E37D9370E32A95E1F71124EF90FF90E9
:102660000F911F91CF91DF91992787FD9095089544
:10267000DC01FC01672F71917723E1F7329704C0E9
:102680007C916D9370836291AE17BF07C8F3089574
:04269000F894FFCFEC
:102694007D00E8033200004014540CFFFF010020C9
:1026A4002020202020202020202020202020200046
:1026B400546865726D616C20436861727400526580
:1026C400636F7264657200202020204D61696E2062
:1026D4004D656E75202020005337205570207C20D6
:1026E40053313520446F776E00446F2061206D654F
:1026F40061737572656D656E74005336204F4B209F
:10270400207C202020202020202000436F6E66693A
:102714006775726174696F6E20202000202020503C
:1027240072696E74204D656E752020200020202073
:10273400202020207C202053382043414E004D652A
:102744006173757265204C44522020202020005370
:1027540036204F4B20207C202053382043414E000C
:102764004D6561737572652054656D70202020205D
:10277400005072696E74696E67204C4452202020A8
:1027840020005072696E74696E672054656D702004
:10279400202000202020436F6E666967204D656EFF
:1027A400752020005365742053616D706C65205250
:1027B4006174652000536574204C44522072616E2C
:1027C4006765202020005365742054656D70207265
:1027D400616E676520200053616D706C65732F73A3
:1027E4003A2020202020200053377C533135207C90
:1027F40020205338204F4B2000536574204C445202
:10280400202531202020202020004C696768742076
:1028140066726F6D3A2020202020004C696768742E
:1028240020746F3A2020202020202000536574203B
:1028340054656D7020253120202020200054656DC2
:10284400702E2066726F6D3A20202020200054657F
:102854006D702E20746F3A202020202020200054F8
:10286400656D706572617475726520696E2064654A
:1028740067BA004C44522056616C75657300456E0E
:1028840064206F66204D6561737572656D656E7445
:10289400001FC03FE02C20272021A03FE01FC000E4
:1028A40000208020803FC03FE02000200000000086
:1028B4000030C038E02C20262033E031C000000076
:1028C4000010403060222022203FE01DC0000000A4
:1028D4000006000700058024C03FE03FE02400001C
:1028E4000013E033E0222022203E201C20000000C0
:1028F400001F803FC0226022203E201C00000000F8
:102904000000E000E038203C20062003E001E00065
:10291400001DC03FE0222022203FE01DC000000037
:102924000001C023E032203E200FE003C00000007D
:1029340000007CC6CEDED6F6E6C67C000000103071
:10294400F03030303030FC00000078CCCC0C183043
:1029540060CCFC00000078CC0C0C380C0CCC78005B
:1029640000000C1C3C6CCCFE0C0C1E000000FCC0D7
:10297400C0C0F80C0CCC780000003860C0C0F8CCA3
:10298400CCCC78000000FEC6C6060C1830303000EF
:10299400000078CCCCCC78CCCCCC7800000078CCBF
:1029A400CCCC7C181830700000003078CCCCCCFC37
:1029B400CCCCCC000000FC6666667C666666FC00D7
:1029C40000003C66C6C0C0C0C6663C000000F86C8F
:1029D40066666666666CF8000000FE6260647C648D
:1029E4006062FE000000FE6662647C646060F00069
:1029F40000003C66C6C0C0CEC6663E000000CCCC1B
:102A0400CCCCFCCCCCCCCC00000078303030303096
:102A14003030780000001E0C0C0C0CCCCCCC7800B0
:102A24000000E6666C6C786C6C66E6000000F06092
:102A3400606060626666FE000000C6EEFEFED6C6FA
:102A4400C6C6C6000000C6C6E6F6FEDECEC6C60092
:102A54000000386CC6C6C6C6C66C38000000FC66EA
:102A640066667C606060F0000000386CC6C6C6CE46
:102A7400DE7C0C1E0000FC6666667C6C6666E60006
:102A8400000078CCCCC07018CCCC78000000FCB42A
:102A940030303030303078000000CCCCCCCCCCCCD2
:102AA400CCCC78000000CCCCCCCCCCCCCC783000D6
:102AB4000000C6C6C6C6D6D66C6C6C000000CCCC72
:102AC400CC783078CCCCCC000000CCCCCCCC7830DA
:102AD400303078000000FECE9818306062C6FE00E8
:102AE40000000000000000000000000000003C6640
:102AF40066663C0000000000000000000000FE00CC
:062B0400000000000000CB
:00000001FF
