:100000000C942A000C9447000C9447000C94470071
:100010000C9447000C9447000C9447000C94470044
:100020000C9447000C9447000C9480020C944700F9
:100030000C9447000C9447000C9447000C94470024
:100040000C9447000C9447000C9447000C94470014
:100050000C94470011241FBECFE5D8E0DEBFCDBF12
:1000600011E0A0E6B0E0EEEAF6E002C005900D92E5
:10007000A033B107D9F721E0A0E3B1E001C01D92A0
:10008000A733B207E1F70E944F000C9455030C947C
:1000900000008FEF84BB1ABA8FE08BBB08950E94DB
:1000A000C3000E9430030E9449000E9411012FEFFB
:1000B00081EE94E0215080409040E1F700C00000C4
:1000C0000E94E8008FE39FE10197F1F700C0000074
:1000D00078940E94750080933401FBCF08950895B1
:1000E000089508950E945D0108958BB38F608BBBC6
:1000F00020E030E060E870E0822F9AB31ABA9AB339
:10010000AB01022E02C0559547950A94E2F7492BA0
:100110004ABBCB9B0CC0CA9B06C0C99B06C0C899F2
:100120000BC093E005C091E003C092E001C090E0F5
:10013000990F990F890F08952F5F3F4F2430310594
:10014000D9F68FEF0895C29A00000000C298089572
:1001500011BAC19AC09882B3803528F00E94A300DA
:1001600082B38035D8F78FEF81BB0895CF93C82F26
:100170000E94A800C2BB88B38C7F88BB0E94A300EA
:1001800012BACF91089587B3876087BB8FE59AEE47
:100190000197F1F700C0000081E00E94B6008FE3F4
:1001A0009FE10197F1F700C0000088E30E94B600CC
:1001B00087EC90E00197F1F700C000008CE00E940E
:1001C000B60087EC90E00197F1F700C000000895B9
:1001D00081E00E94B6000895CF93C82F0E94A80026
:1001E000C2BBC198C09A0E94A30012BACF910895D1
:1001F000CF93DF93EC018881882331F021960E9410
:10020000EC0089918111FBCFDF91CF910895815846
:10021000E62FF0E0E15AFF4F9081890F0E94B6006F
:10022000089561E081E00E94070184E690E00E9469
:10023000F80062E081E00E94070182E790E00E94FE
:10024000F800089581309105B1F08230910521F1D7
:10025000892B91F561E084E00E9407018BE790E033
:100260000E94F80062E081E00E94070185E890E0CA
:100270000E94F800089561E081E00E94070186E98C
:1002800090E00E94F80062E081E00E94070182EAAB
:1002900090E00E94F800089561E081E00E9407016B
:1002A0008BEA90E00E94F80062E081E00E94070182
:1002B00082EA90E00E94F8000895809132019091C6
:1002C00033018233910509F478C08436910509F42D
:1002D000C5C0892B09F013C1809130019091310183
:1002E0000E942201809134018630C9F40E94750079
:1002F0008630E1F380913001909131010197909324
:100300003101809330010E94E8008091300190918A
:100310003101992324F4109231011092300180911F
:1003200034018E30D9F40E9475008E30E1F3809153
:100330003001909131010196909331018093300109
:100340000E94E8008091300190913101039734F0D0
:1003500082E090E0909331018093300180913001F0
:1003600090913101019781F480913401853061F4DD
:1003700010923101109230010E94E80082E390E077
:10038000909333018093320180913001909131013B
:10039000029709F0B4C080913401853009F0AFC0F4
:1003A00010923101109230010E94E80084E690E042
:1003B00090933301809332010895A89A809134017B
:1003C000863049F4809130019091310101969093EB
:1003D000310180933001809134018E3049F4809155
:1003E0003001909131010197909331018093300158
:1003F0008091300190913101019771F48091340125
:10040000853051F410923101109230018EE591E067
:1004100090933301809332018091300190913101AA
:10042000029771F480913401853051F410923101BA
:10043000109230018EE591E0909333018093320168
:1004400080913401873009F05AC010923101109226
:10045000300110923301109232010895A99A8091CF
:100460003401863049F48091300190913101019638
:100470009093310180933001809134018E3049F4A2
:1004800080913001909131010197909331018093D7
:1004900030018091300190913101019771F4809188
:1004A0003401853051F410923101109230018AEFFD
:1004B00090E09093330180933201809130019091CC
:1004C0003101029771F480913401853051F410921A
:1004D00031011092300188EC90E0909333018093C9
:1004E000320180913401873051F410923101109221
:1004F000300186E990E090933301809332010895B2
:100500001F920F920FB60F9211242F933F934F9388
:100510005F936F937F938F939F93AF93BF93EF936B
:10052000FF938091350190913601019690933601A9
:10053000809335010E94720040913501509136013F
:100540009A01ADECBCEC0E94460396958795969572
:100550008795969587959C01220F331F880F991FC9
:10056000880F991F880F991F820F931F48175907EB
:1005700011F40E94710040913501509136019A01A9
:100580003695279536952795ABE7B4E10E9446034B
:100590009695879564E6689F9001699F300D1124B8
:1005A0004217530711F40E94700040913501509199
:1005B00036019A01369527953695279536952795D4
:1005C000A5ECB0E20E944603929582958F70892730
:1005D0009F70892768EE73E0869F9001879F300D9A
:1005E000969F300D11244217530711F40E946F009B
:1005F00040913501509136019A01329522952F7024
:1006000023273F702327A7E4B3E00E944603969573
:100610008795969587959695879560E177E2869F71
:100620009001879F300D969F300D1124421753077C
:1006300031F40E946E001092360110923501FF9144
:10064000EF91BF91AF919F918F917F916F915F914A
:100650004F913F912F910F900FBE0F901F901895C3
:10066000109236011092350183B783BF83B7826041
:1006700083BF83B7886083BF88B7826088BF89B72C
:10068000826089BF12BE87EC8CBF0895A29FB00123
:10069000B39FC001A39F700D811D1124911DB29FB6
:0E06A000700D811D1124911D0895F894FFCF57
:1006AE0000401454546865726D616C204368617229
:1006BE0074005265636F72646572004D61696E20DD
:1006CE004D656E75005337205570207C20533135A3
:1006DE0020446F776E005072696E742043686172A9
:1006EE0074005336204F4B20207C00436F6E66699A
:1006FE0067757265005072696E74204D656E750077
:10070E00202020202020207C202053382043414EC2
:10071E00005072696E74204C4452005336204F4B79
:10072E0020207C202053382043414E005072696EA9
:10073E00742054656D7000436F6E666967204D6559
:10074E006E75005365742053616D706C6520526137
:10075E00746500536574204C445220506172616D73
:10076E00005365742054656D7020506172616D0088
:00000001FF
