:100000000C942A000C943C000C943C000C943C0092
:100010000C943C000C943C000C943C000C943C0070
:100020000C943C000C943C000C9444000C943C0058
:100030000C943C000C943C000C943C000C943C0050
:100040000C943C000C943C000C943C000C943C0040
:100050000C943C0011241FBECFE5D8E0DEBFCDBF1D
:1000600020E0A0E6B0E001C01D92A236B207E1F7A1
:100070000E943E000C94FA000C940000FFCF0895FB
:1000800008950895089508951F920F920FB60F9244
:1000900011242F933F934F935F936F937F938F938D
:1000A0009F93AF93BF93EF93FF930E9443004091C0
:1000B0006000509161009A01ADECBCEC0E94EB0035
:1000C0009695879596958795969587959C01220F8D
:1000D000331F880F991F880F991F880F991F820F50
:1000E000931F4817590711F40E9442004091600085
:1000F000509161009A013695279536952795ABE783
:10010000B4E10E94EB009695879564E6689F9001A4
:10011000699F300D11244217530711F40E944100CA
:1001200040916000509161009A013695279536956F
:10013000279536952795A5ECB0E20E94EB009295A5
:1001400082958F7089279F70892768EE73E0869F5C
:100150009001879F300D969F300D11244217530751
:1001600011F40E94400040916000509161009A019A
:10017000329522952F7023273F702327A7E4B3E001
:100180000E94EB009695879596958795969587950D
:1001900060E177E2869F9001879F300D969F300D3A
:1001A00011244217530731F40E943F00109261005E
:1001B00010926000FF91EF91BF91AF919F918F914D
:1001C0007F916F915F914F913F912F910F900FBE53
:1001D0000F901F901895A29FB001B39FC001A39FDD
:1001E000700D811D1124911DB29F700D811D112470
:0801F000911D0895F894FFCF62
:00000001FF
