:100000000C942A000C9447000C9447000C94470071
:100010000C9447000C9447000C9447000C94470044
:100020000C9447000C9447000C949D040C944700DA
:100030000C9447000C9447000C9447000C94470024
:100040000C9447000C9447000C9447000C94470014
:100050000C94470011241FBECFE5D8E0DEBFCDBF12
:1000600011E0A0E6B0E0EEEEFAE002C005900D92DD
:10007000A03EB107D9F721E0A0EEB1E001C01D928A
:10008000A73EB207E1F70E9450000C9475050C944E
:1000900000008FEF84BB80EF8ABB8FE08BBB08959D
:1000A0000E94DE000E9450050E9449000E94390112
:1000B0002FEF83EC99E0215080409040E1F700C0A1
:1000C00000000E9428017894FFCF089508950895B4
:1000D00015BA0E9474008093E4018091E40185BB0D
:1000E00008950E94660208958FE78BBBCB9B26C0C4
:1000F000CA9B26C0C99B26C0C89B26C08FEB8BBB62
:10010000CB9B24C0CA9B24C0C99B24C0C89B24C0CD
:100110008FED8BBBCB9B22C0CA9B22C0C99B22C048
:10012000C89B22C08FEE8BBBCB9B20C0CA9B20C03C
:10013000C99B20C0C89920C080E1089584E008953B
:1001400085E0089589E008958DE0089581E008959F
:1001500086E008958AE008958EE0089582E008958B
:1001600087E008958BE008958FE0089583E0089577
:1001700088E008958CE0089580E00895C29A000018
:100180000000C298089511BAC19AC09882B3803510
:1001900028F00E94BE0082B38035D8F78FEF81BB74
:1001A0000895CF93C82F0E94C300C2BB88B38C7F31
:1001B00088BB0E94BE0012BACF91089587B38760B2
:1001C00087BB8FE59AEE0197F1F700C0000081E050
:1001D0000E94D1008FE39FE10197F1F700C000007A
:1001E00088E30E94D10087EC90E00197F1F700C00E
:1001F00000008CE00E94D10087EC90E00197F1F7BD
:1002000000C000000895CF93C82F0E94C300C2BB56
:10021000C198C09A0E94BE0012BACF910895CF93A0
:10022000DF93EC018881882331F021960E9403013D
:1002300089918111FBCFDF91CF9108958158E62FED
:10024000F0E0E15AFF4F9081890F0E94D10008959C
:1002500061E081E00E941E0184E690E00E940F01AF
:1002600062E081E00E941E0184E690E00E940F019E
:10027000089561E081E00E941E0185E790E00E9400
:100280000F0162E081E00E941E0183E890E00E947D
:100290000F01089581309105B1F08230910521F16F
:1002A000892B91F561E081E00E941E018CE890E0CD
:1002B0000E940F0162E081E00E941E018DE990E042
:1002C0000E940F01089561E081E00E941E018EEA04
:1002D00090E00E940F0162E081E00E941E018FEB1E
:1002E00090E00E940F01089561E081E00E941E01EC
:1002F00080ED90E00E940F0162E081E00E941E010B
:100300008FEB90E00E940F01089581309105B1F0CC
:100310008230910521F1892B91F561E081E00E9405
:100320001E0181EE90E00E940F0162E081E00E94D8
:100330001E0182EF90E00E940F01089561E081E0CC
:100340000E941E0183E091E00E940F0162E081E0C3
:100350000E941E0184E191E00E940F01089561E076
:1003600081E00E941E0185E291E00E940F0162E09F
:1003700081E00E941E0184E191E00E940F01089536
:1003800061E081E00E941E0186E391E00E940F017E
:1003900062E081E00E941E0182EF90E00E940F0166
:1003A000089561E081E00E941E0187E491E00E94CF
:1003B0000F0162E081E00E941E0182EF90E00E9446
:1003C0000F01089581309105D9F01CF4892B39F083
:1003D00008958230910529F10397A1F1089561E014
:1003E00081E00E941E0188E591E00E940F0162E019
:1003F00081E00E941E0182EF90E00E940F010895AB
:1004000061E081E00E941E0189E691E00E940F01F7
:1004100062E081E00E941E0184E191E00E940F01F0
:10042000089561E081E00E941E018AE791E00E9448
:100430000F0162E081E00E941E0184E191E00E94D0
:100440000F01089561E081E00E941E018BE891E0B8
:100450000E940F0162E081E00E941E0184E191E0B0
:100460000E940F01089561E081E00E941E018CE965
:1004700091E00E940F0162E081E00E941E018DEA7E
:1004800091E00E940F01089561E081E00E941E0149
:100490008EEB91E00E940F0162E081E00E941E015C
:1004A0008DEA91E00E940F01089561E081E00E94D1
:1004B0001E018FEC91E00E940F0162E081E00E943A
:1004C0001E018DEA91E00E940F0108958091E201E2
:1004D0009091E3018639910509F415C264F48233E1
:1004E000910509F48BC08436910509F40AC1892B62
:1004F00009F022C214C08A3F910509F4CFC12CF43F
:10050000883C910509F4E5C108958C3221E09207F9
:1005100009F48EC18E35914009F4A5C108958091EA
:10052000E0019091E1010E944A018091E40187304D
:10053000D1F402C01092E4010E9474008730D1F31C
:100540008091E0019091E10101979093E101809306
:10055000E0018091E0019091E101992324F410924F
:10056000E1011092E0018091E4018F30E1F402C0DA
:100570001092E4010E9474008F30D1F38091E00169
:100580009091E10101969093E1018093E0018091C7
:10059000E0019091E101039734F082E090E09093C4
:1005A000E1018093E0018091E0019091E1010197E8
:1005B00071F48091E401863051F41092E1011092BF
:1005C000E00182E390E09093E3018093E201809167
:1005D000E0019091E101029709F0AEC18091E40140
:1005E000863009F0A9C11092E1011092E00184E681
:1005F00090E09093E3018093E20108958091E001FF
:100600009091E1010E9485018091E4018730D1F44D
:1006100002C01092E4010E9474008730D1F38091EF
:10062000E0019091E10101979093E1018093E00155
:100630008091E0019091E101992324F41092E1016D
:100640001092E0018091E4018F30E1F402C0109239
:10065000E4010E9474008F30D1F38091E001909109
:10066000E10101969093E1018093E0018091E00126
:100670009091E101039734F082E090E09093E101E2
:100680008093E0018091E0019091E101019771F484
:100690008091E401863051F41092E1011092E00162
:1006A0008EE591E09093E3018093E2018091E00177
:1006B0009091E101029771F48091E401863051F448
:1006C0001092E1011092E0018CE291E09093E3013D
:1006D0008093E2018091E401883009F02DC102C0CD
:1006E0001092E4010E9474008830D1F381E090E020
:1006F0009093E1018093E0011092E3011092E201F6
:1007000008958091E0019091E1010E94E2018091C1
:10071000E4018730D1F402C01092E4010E94740019
:100720008730D1F38091E0019091E101019790939E
:10073000E1018093E0018091E0019091E101992332
:1007400024F41092E1011092E0018091E4018F30D5
:10075000E1F402C01092E4010E9474008F30D1F3E2
:100760008091E0019091E10101969093E1018093E5
:10077000E0018091E0019091E101049734F083E081
:1007800090E09093E1018093E0018091E0019091ED
:10079000E101019771F48091E401863051F41092E7
:1007A000E1011092E0018AEF90E09093E3018093E1
:1007B000E2018091E0019091E101029771F4809152
:1007C000E401863051F41092E1011092E00188ECCE
:1007D00090E09093E3018093E2018091E001909199
:1007E000E101039771F48091E401863051F4109295
:1007F000E1011092E00186E990E09093E30180939B
:10080000E2018091E401883009F096C002C01092A4
:10081000E4010E9474008830D1F382E090E090936C
:10082000E1018093E0011092E3011092E20108954A
:100830000E94D1018091E401883009F07DC002C09E
:100840001092E4010E9474008830D1F382E090E0BD
:100850009093E1018093E00182E390E09093E301C3
:100860008093E20108950E94C0018091E4018830E4
:1008700009F062C002C01092E4010E947400883046
:10088000D1F381E090E09093E1018093E00182E375
:1008900090E09093E3018093E20108950E94330277
:1008A0008091E401883009F047C002C01092E40151
:1008B0000E9474008830D1F381E090E09093E101D0
:1008C0008093E00184E690E09093E3018093E2015D
:1008D00008950E9444028091E401883069F502C0C5
:1008E0001092E4010E9474008830D1F382E090E01D
:1008F0009093E1018093E00184E690E09093E3011E
:100900008093E20108950E9455028091E4018830AD
:1009100099F402C01092E4010E9474008830D1F36F
:1009200083E090E09093E1018093E00184E690E021
:100930009093E3018093E20108951F920F920FB606
:100940000F9211242F933F934F935F936F937F9355
:100950008F939F93AF93BF93EF93FF938091E501A4
:100960009091E60101969093E6018093E50185B3AD
:10097000805885BB0E9471004091E5015091E601CD
:100980009A01ADECBCEC0E9466059695879596950C
:100990008795969587959C01220F331F880F991F85
:1009A000880F991F880F991F820F931F48175907A7
:1009B00011F40E9468004091E5015091E6019A010E
:1009C0003695279536952795ABE7B4E10E946605E5
:1009D0009695879564E6689F9001699F300D112474
:1009E0004217530711F40E9467004091E5015091AE
:1009F000E6019A01369527953695279536952795E0
:100A0000A5ECB0E20E946605929582958F708927C9
:100A10009F70892768EE73E0869F9001879F300D55
:100A2000969F300D11244217530711F40E9466005F
:100A30004091E5015091E6019A01329522952F707F
:100A400023273F702327A7E4B3E00E94660596950D
:100A50008795969587959695879560E177E2869F2D
:100A60009001879F300D969F300D11244217530738
:100A700031F40E9465001092E6011092E501FF91A9
:100A8000EF91BF91AF919F918F917F916F915F9106
:100A90004F913F912F910F900FBE0F901F9018957F
:100AA0001092E6011092E50183B783BF83B782609D
:100AB00083BF83B7886083BF88B7826088BF89B7E8
:100AC000826089BF12BE87EC8CBF0895A29FB001DF
:100AD000B39FC001A39F700D811D1124911DB29F72
:0E0AE000700D811D1124911D0895F894FFCF13
:100AEE0000401454202020202020202020202020D0
:100AFE002020202000546865726D616C204368616F
:100B0E007274005265636F7264657200202020203B
:100B1E004D61696E204D656E752020200053372083
:100B2E005570207C2053313520446F776E00507203
:100B3E00696E742043686172742020202020005357
:100B4E0036204F4B20207C202020202020202000EB
:100B5E00436F6E6669677572652020202020202005
:100B6E00002020205072696E74204D656E75202015
:100B7E002000202020202020207C202053382043BD
:100B8E00414E005072696E74204C44522020202039
:100B9E00202020005336204F4B20207C202053381D
:100BAE002043414E005072696E742054656D702062
:100BBE002020202020005072696E74696E67204CD0
:100BCE00445220202020005072696E74696E672096
:100BDE0054656D7020202000202020436F6E6669C2
:100BEE0067204D656E752020005365742053616D2E
:100BFE00706C6520526174652000536574204C44FE
:100C0E005220506172616D20202000536574205473
:100C1E00656D7020506172616D20200053657420E7
:100C2E005261746520253120202020200053377C0E
:100C3E00533135207C202053382043414E005365DC
:100C4E0074204C4452202531202020202020005397
:100C5E0065742054656D70202531202020202000E1
:00000001FF
